:100000007EC318951895189518951895189500C3DE
:1000100018951895189518951895FBC21895189568
:100020001895C0F9A4B0999282F8809038600000C9
:10003000EE270A5012F0E05FFCCF065F0E0F089526
:10004000E0E600810023D9F40AE0008306B30095BE
:10005000047011F001E001C000E0038309B30095D2
:10006000007811F002E001C000E01381102B13832F
:10007000012F1481011711F0048308950583089559
:100080002A2FE0E60681002329F00A9551F00A950F
:10009000D1F030C033D081F102E0018306810395B5
:1000A0002AC00181002351F429D029F0A8E70C933C
:1000B0000681039506830AE0A9E70C931FD0E1F4BB
:1000C00006810A9518C0A9E70C91002369F440E164
:1000D00028D3AAE71C91011719F0012F40E12BD377
:1000E00000E00683A8E70C9309D031F00AE0E8E7C6
:1000F000018302C000E00683A22F0895058100233A
:1001000008951DD3B02FAFEF00231AF4AFEBB095D5
:10011000B395BA3014F48FEF09C00B2F89DF029525
:100120000F70F0E0E02FEE5DFF4F84910B2F80DF2A
:100130008A23F0E00F70E02FEE5DFF4F0491182F3F
:10014000E4E002C3E7E60481DCDFE7E6058316832B
:100150000895E7E61081112391F515E010831285CB
:10016000109512871085112381F01485112359F4FD
:1001700013851095138714E614871385112339F01E
:100180000FEF1FEF06C01A95F7CF10E01387058118
:1001900016812BB3297F2BBB2285222319F02781BF
:1001A000022301C0012F10E027D2E7E602850023D9
:1001B00011F004E001C002E01BB3102B1BBB08953B
:1001C000E7E60085002319F00FEF07830895028109
:1001D0001381012B99F407810F3F11F40FE701C040
:1001E0000FEF078301850F7029F00AEA10E0028300
:1001F0001383089508EE13E0028313830895C098D3
:10020000B89A0FEB13E001501040E9F700C000006E
:10021000B89800EA0A95F1F716B327E433E02150C5
:100220003040E9F700C00000012F0170089515D09B
:10023000002309F0B89800EA0A95F1F7B8980895F4
:1002400000E00BD0B89815E21A95F1F70000B099CC
:1002500001E018E71A95F1F70895C098B89A00C020
:1002600000C000C000C008956CD2902F88E004C088
:10027000092F0170DCDF9695082F8A950023C1F7BE
:10028000E2E064C25ED288E090E007C0D9DF9695D4
:10029000102F10FB00E007F9902B082F8A95002300
:1002A000A9F7092FEDCF00EF0BBB07E70ABB0FE063
:1002B00008BB01E007BB02E000BF03E003BF00E0B2
:1002C00002BF09EF06BF00E00CBF05BF0BBFF6D1B0
:1002D000A89509E301BD09E201BD7BC1E4DF00E0AF
:1002E000E8E70083EBE7048301E005830AE010E020
:1002F0000183128303E0038325D1A7D12ADF60DFC6
:100300009FDEBEDE03D06FD0D9D0F6CFAA93EBE745
:1003100016811123F9F404E0E4E70483E7E601E041
:100320000087A6E85AD021F001EC1CE9058316836A
:10033000A7E853D021F001EC13EE05831683A1E862
:100340004CD0D1F001E0A0E80C9300E0A8E70C93BA
:10035000008712C0E4E71481112349F01A9571F067
:100360001A9561F01A9549F11A95C1F232C00281CD
:10037000002311F4038134D0A9910895E0E612819D
:100380001123D1F71581113031F4E4E716811E31C4
:100390006CF413951683E0E61581123039F4E4E726
:1003A00016811E3E1CF0012F0A950683E4E70681A4
:1003B00017D008ECE0E60283DFCFE7E6A0E80DD037
:1003C00021F000E00C9301E003C001E00C9300E099
:1003D000008700E0E4E70483CFCF0C910023089569
:1003E000E7E60483AFCE8A93E4E70081039579F1D1
:1003F0000A9599F10A9539F00A9571F00A95C9F0B4
:100400000A9559F128C02DD004E42EDF02E0E4E77C
:1004100001830081039520C013DF002321F0E4E76E
:10042000008103950083E4E701810023B1F40FEF1D
:1004300013C017D00EEB18DF25DF802F23DF0295C6
:10044000007F82958F70082BE4E70383E2CFE0E022
:10045000F0E0099502C000E0008306D00ED089913B
:100460000895CDDE0CEC00CFE4E70281002321F4F7
:1004700001E0008302E00283089563D1E4E7008194
:10048000043099F42381322F330F330B10D00197AE
:100490008217930714F000E006C009D002962817CF
:1004A00039071CF001E0EBE70483E2E04FC140E1D3
:1004B00038D1802F902F990F990B08952A2FEBE7B1
:1004C0000481002341F00581002329F006810023E7
:1004D00011F001E001C000E000830381002339F046
:1004E0000A9569F00A95D1F00A9531F129C0008189
:1004F000002319F0038103950383A22F089500813F
:10050000002319F403810A95F7CF0FE0A0E70C93BD
:10051000D89A08E017E001831283ECCF0081002312
:1005200021F001811281012B41F700E0A0E70C933B
:10053000D8980EE110E0EFCF01811281012BE9F68E
:1005400000E0DACFA89508B701FF30C002E008BF8D
:10055000E0E632D02CD0E7E62FD01381012B29F032
:1005600002810150104002831383E2E8008111816F
:10057000012B31F000810150104000831183089558
:1005800004EF11E000831183E0E61DD0EBE7018169
:100590001281012B29F00181015010400183128347
:1005A000E8E711D0E4E70FD0028101D008950023DD
:1005B00011F00A95028308950081002311F00A9535
:1005C0000083028108950181002311F00A950183BF
:1005D0000895DC980AB300670ABB02E10DB90895DB
:1005E0000FB918E004C001E10DB903E10DB9012F05
:1005F0001A950023C1F708958A93802FDE98012F62
:10060000EFDF082FEDDFDE9ADE9ADE9889910895FC
:100610001895EA932A931A930A932FB705B1E4E841
:100620000B3038F01481101708F4048300E0038BBA
:1006300006C00389002319F401E0038B05832FBF53
:10064000099119912991E99118954A2FE4E80581BA
:10065000002391F10289A4E8A00F20813181AA5FD3
:100660000C9110E0201B30400481200F311F2083AB
:1006700031830C9302890395028B0C3008F0128BA6
:10068000138312830081118100372BE0120718F0C9
:1006900001E0028305C0033C174010F401E003832E
:1006A00002811381012B11F000E001C001E0A1E8FB
:1006B0000C9300E004830583A42F089500E00FBD90
:1006C0000BE10EBD00E005BD0CE704BD00E009BD77
:1006D00000E708BD04E00CB900E808B908E001B97A
:1006E00003E007B90FEA06B903B1087603B903B10D
:1006F000056103B97894089500008895FECF07ED51
:100700000DBFC8EB27D0002309F030D0E7DDF4DFC0
:10071000F3CFE199FECF08954395FBDF4EBBE09AFE
:100720000895FBDF0DB3089543954EBBF894E29A0C
:10073000E19A0FBE08950FB6ECDF0DBBF6CFBA936A
:10074000AA939A938A930895BB81AA8199818881FB
:10075000CE0F089501E0089510E01D930A95E1F78A
:10076000089515911D930A95E1F708958CE290E0A4
:10077000FC010591A491FC01329625913491122F30
:10078000132B19F0F901EDDF01C0E6DF049610E04C
:080790008033910768F308951E
:00000001FF
:00000001FF
